:020000022000DC
:103000000000012041F1020079F10200913102003B
:103010007DF10200A1310200A93102000000000090
:1030200000000000000000000000000051D6020077
:1030300085F1020000000000E9D60200F9D6020086
:103040008BF102008BF102008BF102008BF1020088
:103050008BF102008BF102008BF102008BF1020078
:103060008BF102008BF102008BF102008BF1020068
:103070008BF10200911503008BF102008BF102002D
:103080008BF102008BF102008BF102008BF1020048
:103090008BF102008BF102008BF102008BF1020038
:1030A0008BF102008BF102008BF102008BF1020028
:1030B0008BF102008BF10200000000000000000014
:1030C0008BF102008BF102008BF102008BF1020008
:1030D0008BF102008BF102008BF1020010B5054C60
:1030E000237833B9044B13B10448AFF300800123B4
:1030F000237010BDF0430020000000002CD003001E
:1031000008B5034B1BB103490348AFF3008008BD6A
:1031100000000000F44300202CD00300154B002BCE
:1031200008BF134B9D46A3F5803A00218B460F46FE
:103130001348144A121A12F0FBFD0F4B002B00D05B
:1031400098470E4B002B00D0984700200021040028
:103150000D000D48002802D00C4809F015FC12F0B3
:10316000E7F8200029000AF01DF909F00AFC00BF69
:1031700000000800000001200000000001D3020050
:10318000F0430020D068002089C902000000000040
:103190004FF0100300F00CB84FF0200300F008B817
:1031A0004FF0300300F004B84FF0400300F000B8D7
:1031B000EFF308804FF0040172460A4201D0EFF3AA
:1031C00009809C46244B196802680A6004314268F1
:1031D0000A60043182680A600431C2680A600431FE
:1031E000F0C147460F6004314F460F600431574627
:1031F0000F6004315F460F60043102690A600831D4
:1032000042690A60043182690A600431C2690A6055
:103210000431034620334FF40076324200D00433A9
:1032200075464FF01006354200D148330C46103C2D
:103230002360EFF309820A600431EFF308820A6029
:10324000043172460A600431EFF314820A6060466A
:10325000014900F079F8FEE764AF0300F0B52C4CAB
:103260002C4F85B00025264654F82520294638469F
:10327000013509F037F90D2DF6D1A36C0293636C7B
:103280000193236C0093D4E90E23616B224C2348F5
:1032900009F028F92168224809F024F9E16AA26AB4
:1032A000A36AA06A256BE76B000CCDE9015700907B
:1032B000C3F30723D2B21B4809F014F9A36A1D0611
:1032C00003D5616B184809F00DF9A36A180403D5FA
:1032D000A16B164809F006F9F36C190712D51448CA
:1032E00009F000F9336DDA070FD5124809F0FAF842
:1032F000F36C5B074CBF1048104805B0BDE8F040C8
:1033000009F0F0B80E4809F0EDF80E48EEE700BFFE
:10331000EC570020F8AF030000ED00E006B003001A
:1033200055B0030063B00300B2B00300C0B00300A7
:10333000CEB00300DDB003000DB1030019B10300EE
:10334000FDB00300EAB0030013B50446154809F0C8
:10335000C9F8302C17D0402C1AD0202C1DD112487F
:10336000124C09F0BFF8124809F0BCF8FFF776FFDD
:10337000104809F0B7F800230F4A0093D26B0F49A9
:10338000204609F04BFA0E480E4C09F0ABF8EAE77C
:103390000D480E4C09F0A6F8E5E70D480D4C09F074
:1033A000A1F8E0E768AF030091AF03003E01FF80A2
:1033B000BEAF0300C9AF0300EC570020E8AF030025
:1033C000A0AF03003F01FF80A9AF03004001FF80D1
:1033D000B4AF03003D01FF80C36810B504460BB1D4
:1033E0009B689847204610BD38B50546064B45F802
:1033F000283B044600F0C0FB2846FFF7EDFF2046BF
:1034000000F05AFC204638BDA4B3030010B50446B2
:10341000FFF7EAFF204609F071FC204610BD38B5E1
:103420000D4610220021044612F082FCEB681BB10D
:103430005B68294620469847EB68E360204638BD24
:10344000884238B504460D4606D0FFF7C5FF1CB1CB
:1034500029462046FFF7E3FF204638BDF8B504466D
:10346000074654F8085B95B90D4E306818B14FF017
:10347000FF310BF073F93D682DB9254614B1204694
:1034800009F02EFE3C60306808B10BF07FF9AC42C9
:1034900004D06C220349044808F07AFF2046F8BDA6
:1034A0009058002025B103006EB10300C36810B529
:1034B00004460BB19B689847204610BD30B4446861
:1034C00001466CB1D0E9032303F0010502B93DB117
:1034D0005B10E0180DB1E3589A58896830BC10476A
:1034E00030BC704738B5054609F016F8074B1B6825
:1034F000002B08DD064C2078A84218BF002409F0F4
:1035000021F8204638BD0024F9E700BF9844002088
:1035100010440020084A08B51368002B04DD74220B
:103520000649074808F034FF591C1160054A8820F5
:1035300000FB032008BD00BF9844002091B10300A8
:10354000D2B103001044002038B500250823C0E99B
:103550000E350D4B0364FF2380F8305080F8315056
:10356000A0F84430044608F0D7FF2846FFF7BAFF1A
:103570000546606018B9FFF7CDFF60600570BDE8D3
:10358000384008F0DFBF00BF40420F002DE9F04196
:1035900004461E46134B03600025134BE06088462B
:1035A0001746C0E90455102285618360C56129462C
:1035B000203012F0BDFB20469DF9183084F83530DC
:1035C00084F8328084F8337084F834604FF0FF312F
:1035D00000F8365F08F0C9FA2046FFF7B5FF20462D
:1035E000BDE8F08184B20300BD34020037B5044663
:1035F0004068D0F88030A3421AD094F9355094F93D
:10360000343094F9332094F93210009504300CF0E2
:1036100075FD60680023D4E90E1204300CF0D0FD73
:103620006068216C04300CF0F1FD6368C3F88040E1
:1036300003B030BD036870B504461B690D461646DD
:1036400098476068D0F88030A342C4E90E560BD189
:1036500000233246294604300CF0B2FD2368204690
:103660005B69BDE8704018472046FFF7BFFFF5E7EC
:10367000036870B504461B690D4698476068256469
:10368000D0F88030A34209D1294604300CF0BEFDA9
:10369000236820465B69BDE8704018472046FFF765
:1036A000A5FFF5E738B590F936506B1C0DD0012415
:1036B00061B11F2D04D90C494FF4E87002F010FFDE
:1036C0004FF0A043AC40C3F8084538BD1F2D04D9C6
:1036D00005494FF4E87002F003FF4FF0A043AC40FF
:1036E000C3F80C45F1E700BFFBB1030038B5036830
:1036F00004461B69984794F945506B1C84F8453083
:1037000045B92046FFF772FF29462046BDE83840FC
:10371000FFF7C8BF38BD10B590F84530013B5BB22C
:10372000044680F8453013B90121FFF7BBFF236839
:1037300020465B69BDE81040184738B504460D4681
:10374000FFF7D4FF6068294604300CF099FD054668
:103750002046FFF7E0FF284638BDF7B504461F4670
:103760000D461646FFF7C2FF94F844306068019397
:10377000089B009329463B46324604300CF0A6FDD8
:1037800005462046FFF7C7FF284603B0F0BD08B541
:1037900040685030FFF762FEBDE8084009F0A8BC61
:1037A00008B540685030FFF759FEBDE8084009F001
:1037B000BDBC000010B50C4B03600446FFF7E7FFEB
:1037C0006368D3F88020A24204BF0022C3F880209F
:1037D0002046FFF7E5FF04F12000FFF767FEE069F0
:1037E00008F01AFC204610BD84B2030010B5044650
:1037F000FFF7E0FF204609F081FA204610BD6FF088
:103800001500704703681B69184703689B691847D0
:1038100003689B6A184700290CBF6FF0180000204E
:103820007047012070476FF0150070476FF015006A
:10383000704711207047704700F09AB8A0F1D0008F
:10384000FFF7FABF00F097B8A0F1D000FFF7FABF7A
:10385000E83009F04DBCA0F1D000FFF7F9BFE83027
:1038600009F064BCA0F1D000FFF7F9BF0C4B10B514
:1038700003F10802026003F1280294330446C0F801
:10388000D020C0F8D430E83009F06CFC04F1D0004E
:1038900008F03CFD204600F015F9204610BD00BFA1
:1038A0009CB20300A0F1D000E0E7A0F1D400DDE776
:1038B00010B50446FFF7DAFF204609F01FFA20464C
:1038C00010BDA0F1D000F3E7A0F1D400F0E70000B4
:1038D00038B504461D46049B00F054F8294604F10F
:1038E000D00008F0E9FC084B03F10802226003F164
:1038F00028029433C4F8D020C4F8D43004F1E8008E
:1039000009F0EEFB204638BD9CB20300704730B48E
:10391000446801466CB1D0E9032303F0010502B904
:103920003DB15B10E0180DB1E3589A58896830BC7E
:10393000104730BC7047000000EB0113AC33DA686D
:1039400010B57AB100EB0110D0F8B8202AB940F2D6
:103950003B220549054808F01BFD12681846BDE8E2
:103960001040104710BD00BF38B303007DB3030003
:1039700040300CF019BA10B540300C460CF050FA3B
:10398000204610BD2DE9F04F04469B462D4B0360A9
:1039900000252D4BA06085B0436089469246C0E962
:1039A000035545618561057745772946102220300A
:1039B00012F0BEF904F140062946102204F130004D
:1039C00012F0B6F904F1AC0829466C22304612F028
:1039D000AFF904F1BC0729461022404612F0A8F9BD
:1039E00029461022384612F0A3F910222946C4F8BD
:1039F000CCB0684612F09CF969464046FFF720FDBE
:103A00006846FFF7E9FC10222946684612F090F953
:103A100069463846FFF714FD6846FFF7DDFC52465D
:103A2000494630460CF076F8D4F8CC1030460CF00D
:103A300015F93046224605490CF08AF9204605B0B2
:103A4000BDE8F08F8CB303000F3902003939020052
:103A50002DE9FF4103680446164688461B6804EBBF
:103A600006159847AC3508F057FDD8F80C20EB68E0
:103A700004F14007A2B10BB909F03AFA41462846D1
:103A8000FFF7DEFC0122314638460CF071F908F0F0
:103A900059FD236820465B68984704B0BDE8F08173
:103AA0000BB109F047FA10220021684612F040F9E4
:103AB00069462846FFF7C4FC6846FFF78DFC0022E4
:103AC000E1E700007FB51B4B036004461022002194
:103AD000684612F02DF9002269462046FFF7B8FF2C
:103AE0006846FFF779FC10220021684612F020F9A1
:103AF000012269462046FFF7ABFF6846FFF76CFCE2
:103B000014F1AC0608D004F1CC05AE4204D0103D4F
:103B10002846FFF761FCF8E704F13000FFF7C6FC28
:103B200004F12000FFF7C2FCA06908F075FA2046F6
:103B300004B070BD8CB3030010B50446FFF7C2FF9C
:103B4000204609F0DBF8204610BD2DE9F048D0E909
:103B50000245D0E908BC06461BEB04024CEB05030A
:103B600000F09AF8736B2BB106F128001B68BDE8D2
:103B7000F0481847BDE8F0881FB5044608F0CCFCB3
:103B8000204600F093F8636B23B194F838300BB102
:103B900009F0D0F910220021684612F0C9F86946F0
:103BA00004F12800FFF74CFC6846FFF715FC08F00D
:103BB000C9FC04B010BD000010B5034B03600446FF
:103BC000FFF712FC204610BDB8B3030010B5044641
:103BD000FFF7F2FF204609F091F8204610BD0000E3
:103BE00030B5044685B000F1280510220021684652
:103BF00012F09EF8636B1BB15B68294668469847D4
:103C0000636B03932046FFF7B7FF039B2BB940F28A
:103C10003B220649064808F0BBFB1B6868469847EC
:103C20006846FFF7D9FB05B030BD00BF38B30300CD
:103C30007DB3030003689B6818470000094B10B56B
:103C4000002203600023C0E902230023C0E90433FB
:103C5000044608F0D3F90449A06108F037F920467A
:103C600010BD00BFCCB30300353C020010B50446C4
:103C7000074B236000220023C4E9022300230846E7
:103C8000A161C4E90433034908F020F9204610BDBE
:103C9000CCB30300353C020007B5009000F10801E9
:103CA000806908F052F903B05DF804FB00F10801E7
:103CB000806908F073B9000010B5034B0360044637
:103CC000FFF7F4FF204610BDCCB3030003680122C8
:103CD0001B6900211847036800221B691146184719
:103CE00070B5164604460D46102200214C3012F0E5
:103CF0001FF82EB92946204600F046F8204670BD30
:103D000032462946204600F00BF8F7E710B5044686
:103D100000F04CF804F14C00FFF7C8FB204610BD42
:103D200038B5D31C23F003039A1A891A0022C0E97C
:103D3000042221F003010446C3600D46FDB9C4E925
:103D400006512362256000F05CF8657260602572A0
:103D500084F82450C4E90A5504F1300000F056F804
:103D600000280BDB04F1440000F04DF8002805DBCF
:103D700004F1480000F047F800EAE07038BD22691D
:103D8000013222616D08D9E770B5054608460E4636
:103D900011F080FB044630B1024631462846FFF759
:103DA000BFFF6C6170BD4FF0FF30FBE770B5056879
:103DB0000446B5B9A36A1BB14FF0FF31E06A9847DA
:103DC00004F1480000F021F804F1440000F01DF86F
:103DD00004F1300000F02FF86069BDE8704011F088
:103DE00061BBEE6836B9EB6913B105F12400984761
:103DF000AD68DEE7F36913B106F124009847F66871
:103E0000F0E709F08DBF0020704770471FB50446EA
:103E100010220021684611F08BFF231D0293684693
:103E20001023039309F062FD2060B0FA80F040098E
:103E3000404204B010BD006809F070BD70470368CF
:103E40000BB108461847704713B5044608F064FBE9
:103E5000237F1BB108F076FB02B010BD012323774E
:103E600008F070FBA36804F10800002BF4D0044BA9
:103E7000002BF1D002A9636941F8044D9847EBE7A4
:103E80003D3E020038B50C4A016000230446436001
:103E9000C0E90233036183614261037749B9074D89
:103EA0002B6813B903F0DAFC2860236855F8233037
:103EB0006360204638BD00BF3F3E0200C44400207E
:103EC00070B560B9104C25683DB9202008F002FF9C
:103ED00029460646FFF7D6FF2660206870BD0B4CCA
:103EE0002378BFF35B8FDB0701D50948F6E720464F
:103EF00008F058FD0028F8D001210548FFF7C2FF5F
:103F0000204608F073FDF0E7A04400209C44002008
:103F1000A4440020704708B50846FFF7D1FFBDE86C
:103F20000840FFF791BF30B54FF47A7440F2712525
:103F30006143B1FBF5F189B2032983809DF80C3010
:103F4000837198BF0423018098BF03800388B3F571
:103F5000804F88BF4FF4804304FB02F2B2FBF5F2BE
:103F600092B288BF0380032A98BF0423428098BF7F
:103F700043804388B3F5804F84BF4FF48043438030
:103F800030BD10B506220446002111F0D1FE0622F4
:103F90000021204611F0CCFE204610BD7EDF704788
:103FA0007FDF704780DF704781DF704784DF7047B5
:103FB00085DF704786DF70479DDF704708281BD07C
:103FC0000BD804281ED002D800B10B207047062859
:103FD00014D00728F9D104207047112810D003D835
:103FE0000D2809D01028F5E743F202039842F2D0D9
:103FF00043F204039842E8D106207047022070473C
:104000000520704707207047836810B40C4623B121
:10401000204611465DF8044B18475DF8044B704785
:10402000C36810B40C4663B1D1B2022905D003298C
:1040300003D004290CBF0321012120465DF8044B65
:1040400018475DF8044B7047436910B40C4623B120
:10405000204611465DF8044B18475DF8044B704745
:104060007047704770477047704770477047704798
:104070007047704703680BB10846184770470368DC
:104080000BB1084618477047034610B107C983E8CB
:10409000070070477047034610B107C983E807005F
:1040A00070477047034610B107C983E8070070479F
:1040B0007047034610B107C983E80700704770478F
:1040C000034610B107C983E807007047704770B412
:1040D0004668856874100346F60705EB04001B6804
:1040E00044BF2C59E35870BC184770B446688568C3
:1040F00074100346F60705EB04001B6844BF2C59F7
:10410000E35870BC184770B446688568741003465D
:10411000F60705EB04001B6844BF2C59E35870BC3C
:10412000184770B44668856874100346F60705EBB7
:1041300004001B6844BF2C59E35870BC184730B4C6
:10414000456884686A100346ED0704EB02001B68AB
:1041500048BFA25830BC48BFD358184710B50446D2
:1041600008F0CCFD204610BD38B50446006820B1EB
:10417000056908F0C3FD2846F9E7206038BD000056
:1041800010B5044B044640F8043BFFF7EDFF204612
:1041900010BD00BF40B4030010B50446FFF7F0FFA8
:1041A000204608F0ABFD204610BD38B50446006837
:1041B00020B1056908F0A2FD2846F9E7206038BD66
:1041C00010B5044B044640F8043BFFF7EEFF2046D1
:1041D00010BD00BF50B4030010B50446FFF7F0FF58
:1041E000204608F08BFD204610BD000038B5064B78
:1041F00003600446406820B1056908F07FFD284649
:10420000F9E7204638BD00BFE0B3030010B504460F
:10421000FFF7ECFF204608F071FD204610BD0000BE
:1042200038B5064B03600446406820B1056908F0C4
:1042300065FD2846F9E7204638BD00BF30B40300CD
:1042400010B50446FFF7ECFF204608F057FD204666
:1042500010BD000038B5064B03600446406820B12D
:10426000056908F04BFD2846F9E7204638BD00BF38
:1042700060B4030010B50446FFF7ECFF204608F0D9
:104280003DFD204610BD000038B5064B03600446D6
:10429000406820B1056908F031FD2846F9E720465D
:1042A00038BD00BF80B4030010B50446FFF7ECFF33
:1042B000204608F023FD204610BD000038B5064B0F
:1042C00003600446406820B1056908F017FD2846E0
:1042D000F9E7204638BD00BF70B4030010B50446AE
:1042E000FFF7ECFF204608F009FD204610BD000056
:1042F000084BF0B5421D451E0A26B1FBF3F404F14C
:10430000300702F80179954203FB141193FBF6F391
:10431000F3D1F0BDA086010030B5421E431D01213E
:1043200000200A2512F8014F303C934201FB0400A3
:1043300005FB01F1F6D130BD38B5062204460D4625
:10434000002111F0F5FC06222946204611F0F2FB6F
:10435000204638BD037819B143F004030370704759
:1043600023F00403FAE738B504469DF8105081B9EC
:10437000217021787AB141F002012170204619465E
:10438000FFF7E8FF23784DB143F008032370204680
:1043900038BD0121ECE721F00201EEE723F008032C
:1043A000F4E710B59DF8084081B9017001787AB141
:1043B00041F00401017002786BB142F00802027012
:1043C00003785CB143F01003037010BD0121ECE7EA
:1043D00021F00401EEE722F00802F0E723F01003D9
:1043E000F2E74B1E073113F8012F2AB98B42FAD19D
:1043F000003018BF012070470120704710B50446F7
:10440000406B10B103685B6898472046FFF7EEFEEB
:10441000204610BD7047C06803684FF000025B691A
:104420001847F0B500234FF0140C0CFB03F285186D
:1044300095F89F70FE073C4608D4903244F0010383
:10444000104485F89F30C5F89010F0BD0133052B5E
:10445000EBD10020F9E770B50023142505FB03F22A
:10446000841894F89F60F60706D5D4F890408C42E3
:1044700002D19032104470BD0133052BEED10020E3
:10448000F9E710B51446FFF7E6FF40B1037C64F38B
:10449000410303741CB9DBB264F34513037410BD0C
:1044A00070B5054600220C46FFF7EBFFE86803688D
:1044B0002146DB680122BDE870401847F7B5044685
:1044C000174601220E46FFF7DCFFE46823683946F1
:1044D00068469D69FFF70CFF6A4631462046A847AB
:1044E00003B0F0BD70B50646154601220C46FFF735
:1044F000C8FFF06803682A4621465B6ABDE8704041
:10450000184770B5054601220C46FFF7BAFFE86868
:10451000036821461B6ABDE87040184770B5054620
:1045200001220C46FFF7ADFFE86803682146DB690E
:10453000BDE8704018470000436B70B5054616464D
:104540002BB940F20D621349134807F021FFFFF722
:1045500082FF0446E0B1686B616803689B68984716
:10456000B0B1227CC3796168C2F3400262F3861362
:1045700063F07F03C371686B036832469B6A984798
:10458000686B6168036832469B69BDE870401847F4
:1045900070BD00BFC4B4030034B50300436B70B5F5
:1045A000054616462BB940F224620F490F4807F022
:1045B000EFFEFFF750FF0446A0B1686B6168036827
:1045C0009B68984770B1237CC2796168C3F340034C
:1045D00063F38612C271686B036832469B6ABDE85A
:1045E0007040184770BD00BFC4B4030034B5030069
:1045F00070B51E46436B044615462BB940F23A622D
:1046000009490A4807F0C4FEFFF725FF014648B1F3
:10461000606B49680368DC6A2A463346A446BDE8F5
:104620007040604770BD00BFC4B4030034B50300E0
:10463000436B70B5054616462BB94FF4C9620B495A
:104640000B4807F0A5FEFFF706FF044668B1686B4C
:10465000616803689B68984738B1686B6168036854
:1046600032469B69BDE87040184770BDC4B4030072
:1046700034B5030070B51E46436B044615462BB98E
:1046800040F25C6209490A4807F082FEFFF7E3FE48
:10469000014648B1606B49680368DC692A463346C5
:1046A000A446BDE87040604770BD00BFC4B40300BD
:1046B00034B50300436B70B5054616462BB940F27E
:1046C0006A620B490B4807F063FEFFF7C4FE04461D
:1046D00068B1686B616803689B68984738B1686B1C
:1046E0006168036832461B6BBDE87040184770BDB7
:1046F000C4B4030034B50300436B2DE9F041054613
:10470000884617462BB94FF4D2621549154807F071
:104710003FFEFFF7A0FE0646F8B1686B71680368BC
:104720009B6898470446C0B1337CC2797168C3F373
:10473000400363F34512C271686B03683A461B6C11
:104740009847E868E3790268546B41463A46A446C4
:10475000C3F34013BDE8F0416047BDE8F08100BFFE
:10476000C4B4030034B5030070B51E46436B054660
:1047700014462BB940F27E620A490B4807F008FE46
:10478000FFF769FE014660B1686B49680368E2B2F1
:104790005C6BB2FA82F23346A4465209BDE870401F
:1047A000604770BDC4B4030034B5030070B505465E
:1047B000164600220C46FFF764FEE868036866F0C0
:1047C0007F022146DB68D2B2984721462846FFF790
:1047D00042FE68B1C37B03F01803182B08D1E868C8
:1047E000036821465B694FF00002BDE8704018473E
:1047F00070BD00002DE9FF41436B04460F462BB905
:1048000040F201521449154807F0C2FDFFF723FE9C
:104810000646C0B1656B2B68102200216846D3F8AC
:10482000388011F085FA0E4B00930023CDE9013456
:104830000C4B0393726869462846C047039B13B12B
:104840009B6868469847E06803680022DB68394641
:10485000984704B0BDE8F081C4B4030034B5030048
:1048600031490200A0B4030070B50023142505FBF4
:1048700003F2841894F89F60F60706D5D4F89440A4
:104880008C4202D19032104470BD0133052BEED121
:104890000020F9E738B504460025C0E90055083086
:1048A000FFF76FFBE5732574204638BD30B587B040
:1048B0000C4601A8FFF7EEFF05AD01AA23461446FA
:1048C00003CCAC4218605960224603F10803F6D1CC
:1048D00022781A7007B030BDF8B50546D0F88000D0
:1048E00007280F461E4611461CD8172444432A1990
:1048F00092F8940067F3470082F8940004F1950061
:104900000622284411F016F904F1840010223146E1
:10491000284411F00FF9D5F880300133C5F8803004
:104920000020F8BD0620FCE708B5FFF7D5FF08BD5D
:1049300008B513463AB1917D806AC943063301F048
:104940000101FFF7F1FF08BDD1F880208431C0E9F3
:104950000012704707B50023D2B200938DF80430DF
:10496000C2F3800002F0010360F34103C2F3C00010
:1049700060F38203C2F3001262F3C30388B2694694
:104980008DF80030FFF70AFB03B05DF804EBFFF78A
:1049900015BB38B5436B04460D4683B1FFF75BFD8D
:1049A00078B1037C94F88A20A06ADB074CBF42F000
:1049B000040202F0FB022946FFF7CCFF38BD0920B4
:1049C000FCE70420FAE7F0B589B00C460E9F9DF88D
:1049D0003C50194616460DF10200082211F0AAF8C3
:1049E00039460222684611F0A5F83146102203A884
:1049F00011F0A0F89DF81C3003F0FE0365F34103AD
:104A0000102262F38703694603AAA0B28DF81C3016
:104A1000FFF7CEFA09B0BDE8F040FFF7CFBA13B503
:104A20009DF814400194049C0094FFF7CCFF02B061
:104A300010BD30B589B00C4611460022CDE90022E8
:104A4000ADF8082003A810221D4611F073F89DF858
:104A50001C2042F0010265F341021346102262F36A
:104A60008703694603AAA0B28DF81C30FFF7A0FAAD
:104A700009B0BDE83040FFF7A1BA08B5FFF7D9FF8C
:104A800008BD0000436B73B5064614462BB940F2CF
:104A9000C6321249124807F07BFCFFF7E5FE0546D7
:104AA00080B1706B696803689B68984750B14CB1DE
:104AB000C2792968B06AC2F38013120604D522466F
:104AC000FFF7DBFF02B070BD019304F11003009308
:104AD000224604F11203FFF7A2FFF3E7C4B4030078
:104AE00034B5030070B586B00C4601A811461022FB
:104AF0001D469DF8286011F01DF89DF8142066F3FE
:104B0000000265F341021346102262F387038DF819
:104B1000143000231A4601A9A0B2FFF74BFA06B0E1
:104B2000BDE87040FFF74ABA13B59DF810400094F5
:104B3000FFF7D8FF02B010BD08B5002388B21A46AF
:104B40001946FFF737FABDE80840FFF737BA08B54E
:104B5000FFF7F2FF08BD0000436B73B5054616462C
:104B60002BB940F2DF320F490F4807F011FCFFF775
:104B70007BFE044688B1686B616803689B68984750
:104B8000034650B1A86A21684EB1DB79DA09009278
:104B9000C3F380133246FFF7C7FF02B070BDFFF7C3
:104BA000D6FFFAE7C4B4030034B50300022070470F
:104BB00013B5049C0094FFF7F9FF02B010BD73B564
:104BC00006461546FFF750FE044680B17DB1706B76
:104BD000616803689B68984748B1C3792A69009265
:104BE000C3F340132A462168B06AFFF7E1FF02B021
:104BF00070BD0220704708B5FFF7FBFF08BD00003D
:104C0000436B70B504460E462BB940F281420B4906
:104C10000B4807F0BDFBFFF71EFC054660B13146AF
:104C2000A06AFFF7E8FF606B696803681B6E98472E
:104C300029462046FFF73AFE70BD00BFC4B403000A
:104C400034B5030008B588B20221FFF7ABF9BDE81F
:104C50000840FFF7B3B908B5FFF7F4FF08BDF0B59A
:104C6000DFB203789DF818609DF81450C7F3800CEC
:104C700067F300036CF34103C7F3C00C6CF38203CA
:104C8000C7F3001767F3C3030F7E67F3061362F3DE
:104C9000C71303704B7E43708B7E8370C378C6F35B
:104CA000400266F3000362F34103C6F3800262F33D
:104CB0008203C6F3C00666F3C303C3700379C5F36A
:104CC000400265F3000362F34103C5F3800262F31F
:104CD0008203C5F3C00565F3C3030371F0BDF8B5E6
:104CE00014460546637204F10C03036004F12803C3
:104CF000436004F190032B6104F1AC036B6104F198
:104D0000C3039DF81820AB6104F13F0004F14F0785
:104D100004F1D3030E46A272A860EF60EB6118B1F4
:104D20001022043110F006FF2022B118384610F08E
:104D300001FF202206F1400104F16F0010F0FAFE9D
:104D40002846F8BD38B50A4905464FF48A7007F081
:104D5000D3FF044650B14FF48A72002110F0E8FFEF
:104D600000236372A372EB692360EC61204638BDB7
:104D70007CCD0300C3698B4205D11A68C261184615
:104D800007F0BCBF13461A682AB18A42FAD10A68F2
:104D90001A600846F4E770472DE9FF470746884642
:104DA00091469A469DF830509DF83460FFF7CAFF4F
:104DB000044600B3002325F00C0526F00C06037210
:104DC0004A468DF800505346394602A88DF80460D3
:104DD000FFF745FF02A91FFA88F0FFF7DFF8054645
:104DE00018B121463846FFF7C5FF284604B0BDE894
:104DF000F047FFF7E3B8072004B0BDE8F087C069CB
:104E000020B143688B4201D00068F9E7704737B59D
:104E10000C461546FFF7F3FFF8B902F01DFD0368D5
:104E2000DB6998470DF10702214601F057FF034661
:104E3000C8B99DF80720012AA0B20AD165F07F0108
:104E40001A46C9B2FFF7ACF803B0BDE83040FFF72F
:104E5000B5B81946FFF7A2F8F6E700221146A0B24E
:104E6000FFF7A0F8F0E7042003B030BD08B5FFF766
:104E7000CEFF08BD2DE9F0478CB004468846914628
:104E80009A469DF850609DF85470FFF75BFF054609
:104E900050B326F00C06012327F00C0703724A4694
:104EA0008DF800605346214602A88DF80470FFF784
:104EB000D6FE33462A46214604A88DF80070FFF737
:104EC0000EFF04AB02AA00211FFA88F0FFF768F872
:104ED000064618B129462046FFF74CFF30460CB075
:104EE000BDE8F047FFF76AB84FF008024146204698
:104EF000FFF7BCFF07200CB0BDE8F08708B5436B97
:104F00002BB14FF00802806AFFF781FF08BD09202E
:104F1000FCE710B50446E16919B12046FFF72AFF06
:104F2000F9E710BD08B5FFF7F4FF002008BD08B58C
:104F3000FFF7F8FF08BD10B50446FFF7F8FF20465D
:104F400010BD08B5FFF7DAFF08BD006810B10368AF
:104F50001B6818477047006D20B183688B4201D0F1
:104F6000C068F9E7704710B50446FFF7F4FF28B1B1
:104F700003682146DB68BDE81040184710BD70B5D6
:104F800004461546FFF7E7FF30B103682A4621467D
:104F90009B68BDE87040184770BD38B500250446D1
:104FA000294640F8045B102210F0C2FE1022294668
:104FB00004F1140010F0BCFEC4E90955C4E90B5516
:104FC000204638BD10B50B4C2378BFF35B8FDB0751
:104FD0000ED4204607F0E6FC50B10748FFF7DDFF8E
:104FE000204607F003FD054A0549034807F0C7FCC2
:104FF000014810BDC8440020CC440020B03200203D
:10500000DB59020010B500F1240200F1340352F81C
:10501000040B10B144688C4202D09A42F7D10020B0
:1050200010BD10B500F12402002352F8044B8C424D
:1050300006D1083300EB830300225A60012010BD23
:105040000133042BF1D10020F9E710B50C46898813
:10505000FFF7D8FF28B1036821469B68BDE81040E0
:10506000184710BD38B50446E36A2363206B38B196
:10507000C36821469847236B002BF5D01B69F4E7E2
:10508000E06A20B1056907F039FE2846F9E7E062D9
:1050900004F10800FFF789F804F11400FFF764F841
:1050A000206A20B1056907F029FE2846F9E7206249
:1050B00038BD10B50446FFF7D5FF012384F85430FE
:1050C000206D20B1036821461B699847F8E784F8F2
:1050D000540010BD08B5FFF7ECFF08BD07490022DA
:1050E000C0E9011206490260C0E904120549C0E99D
:1050F00007120549C0E90A12704700BF50B4030007
:1051000040B4030070B4030080B4030038B5036AF0
:1051100004460D466BB1074A5AB16362606A40B1FA
:10512000C36829469847636A0BB9236AF5E71B6988
:10513000F3E738BD3D3E02001FB50023CDE9013342
:10514000137800911B2B04D01D2B11D005B05DF8F6
:1051500004FB5388ADF8043001238DF806309368C2
:10516000ADF80830694653680393FFF7CFFFEDE7CA
:105170005388ADF804300223EFE7000010B514782F
:105180001D2C0CD80123A340054C1C402CB913F056
:10519000205F04D0FFF7D0FF01E0FFF7F0FE10BD65
:1051A000AAAA8A0201F0C5BF10B510220446002148
:1051B00010F0BEFD204610BD38B50025044640F86D
:1051C000045BFFF7F1FF0323237607236376202296
:1051D0001023A3762946A0186561E56110F0A8FDAB
:1051E0002946202204F1400010F0A2FD2022294689
:1051F00004F1600010F09CFDC4F88050204638BDDA
:1052000010B50B4C2378BFF35B8FDB070ED4204621
:1052100007F0C8FB50B10748FFF7CEFF204607F064
:10522000E5FB054A0549034807F0A9FB014810BD05
:105230000045002004450020B0320020374F020016
:1052400008B5062210F044FCB0FA80F0400908BD11
:1052500038B5436B05462BB940F226421849194828
:1052600007F096F8FFF7F7F8044688B1686B6168B5
:1052700003689B68984758B195F88A301B0708D592
:1052800005F13E01FFF7DCFF237C60F30413237478
:1052900038BD237CC3F3800262F304137435237496
:1052A0002946FFF7CDFF18B1237C43F01003EEE74A
:1052B000294604F10800FFF7C3FF0028F4D1E7E70F
:1052C000C4B4030034B50300F0B5436B85B00446A5
:1052D0000E46002B50D0FFF7BEF8054600284DD0F3
:1052E00094F88D301BB994F88A30180748D50022FD
:1052F00031462046FFF7C5F831462046FFF7A8FFA4
:105300002B7C94F88A70D90794F88B10C1F3C003F2
:1053100043F002038DF80830EB7B48BF47F00407E9
:105320001A064CBFC3F38011C1F3800102A8FFF736
:1053300011F894F88E2094F88B300AB18DF808306B
:10534000E97B8DF80C300B0604D5C1F3801103A85E
:10535000FFF700F82A7C9DF808309DF80C108DF8B6
:1053600004108DF80030A06A3B46C2F300123146AB
:10537000FFF712FD05B0F0BD0920FBE70420F9E7B7
:105380000620F7E708B5FFF79FFF08BD2DE9F041BC
:1053900005460E461746FFF75EF8044640B3FBB2DB
:1053A000022B0DD1C37B03F0E70343F02003E3732B
:1053B000E86803683A4631465B69BDE8F041184742
:1053C000DA1E012A05D8C37B03F0E70343F022036A
:1053D000EDE7002BECD1C37B03F01803082BE7D1DA
:1053E00001682846FFF7CEFFE37B43F01003E37329
:1053F000BDE8F081F0B5436B85B004460E46002B46
:1054000052D0FFF728F8054600284FD031462046F5
:10541000FFF71EFF2B7C94F88A7094F88E10DA0741
:10542000AA7B02F00F0248BF47F0040702F0040312
:10543000002936D094F88B100A408DF808205BB113
:10544000E97B0B0656BF94F88B10C1F38011C1F3B2
:10545000800102A8FEF77EFF94F88B10AB7B01EA77
:10546000131358078DF80C3009D5EB7B1A064CBF87
:10547000C3F38011C1F3800103A8FEF76BFF2A7C00
:105480009DF808309DF80C108DF804108DF8003050
:10549000A06A3B46C2F300123146FFF7EBFC05B0B1
:1054A000F0BD02F00A02C8E70920F8E70420F6E799
:1054B00008B5FFF79FFF08BD2DE9F04190F88D205A
:1054C0009DF818709DF81C6004460D462AB91B070C
:1054D00003D4FFF736FDBDE8F08129462046FEF7EC
:1054E000BAFF0028F7D0837B67F3030366F3071343
:1054F0008373037C6FF34103037494F88C3033B1EE
:10550000E068036829469B68BDE8F04118472946D2
:105510002046FFF7CDFFDEE7436B2DE9F04104465F
:105520000F462BB940F2DD522149224806F030FFE8
:10553000FEF791FF0546002837D0606B6968036865
:105540009B689847804680B304F174063146FFF7A4
:1055500077FEB0B1012239462046FEF792FF394668
:1055600004F17A02A06AFFF776FB31464046FFF766
:1055700067FED0B1304606220021BDE8F04110F0B0
:10558000D7BB314605F10800FFF75AFE0028E1D1EC
:105590002B7C9A0609D443F020032B74E06803683F
:1055A00039469B6ABDE8F0411847BDE8F08100BF6D
:1055B000C4B4030034B503000022C0E90122026133
:1055C000014A0160C26070477F40020038B5104B4D
:1055D0000025C0E902350F4B0560C0E905350E4BCB
:1055E0008580C0E908350D4B0446C0E90B352946D6
:1055F0003830FFF7E1FF294604F14C00FFF7DCFFEC
:10560000294604F16000FFF7D7FF204638BD00BFF0
:1056100030B4030040B4030050B4030060B403008E
:1056200010B503460C4607C983E80700E268DA6054
:1056300000221A61184610BD70B5044686B0236B6F
:105640006363606B38B1C36821469847636B002B76
:10565000F5D01B69F4E7206B20B1056907F04EFB1C
:105660002846F9E7E5682063A0802DB12E69284619
:1056700007F044FB3546F8E704F11800E560FEF753
:1056800073FD04F12400FEF790FD294601A8FFF701
:1056900093FF01A904F13800FFF7C2FF294601A8D2
:1056A000FFF78AFF01A904F14C00FFF7B9FF294673
:1056B00001A8FFF781FF01A904F16000FFF7B0FF27
:1056C000284606B070BDC36810B504460BB19B6890
:1056D0009847204610BDC36810B504460BB19B68BF
:1056E0009847204610BD08B5102210F0F1F900309F
:1056F00018BF012008BD2DE9F04198B005460E46BF
:105700006846144698461E9FFFF74EFD31462846D0
:10571000FFF775FBA8B369462046FFF7E4FF05468F
:1057200028B1102221460DF1170010F003FA694646
:105730004046FFF7D8FF60B90024B0B2EDB9294662
:10574000ECB92246FEF732FC18B0BDE8F041FEF796
:1057500035BC69463846FFF7C6FF04460028EBD043
:10576000414610220DF13F0010F0E4F910223946B5
:105770000DF14F0010F0DEF9DFE704A9E0E70EAA13
:10578000E0E7062018B0BDE8F08113B5049C009452
:10579000FFF7B1FF02B010BD73B5012204460D46FC
:1057A000FEF76FFE29462046FEF755FE28B3636BD1
:1057B00041681A68184692689047F0B104F13E06B5
:1057C0003146FFF73DFD90B104F15403009304F11D
:1057D0006402294604F14403A06AFFF7D6FF0622BB
:1057E0000021304602B0BDE8704010F0A1BA4FF081
:1057F00002022946A06AFFF739FB02B070BD10B55E
:105800001022044610F096F9204610BDC36810B56A
:1058100004460BB19B689847204610BDC36810B57D
:1058200004460BB19B689847204610BD2DE9FF4107
:105830000446002588466E46FFF750FC2B4B6364F8
:10584000C4F83480C4E90E552564A564C4E9135531
:1058500084F8545010222946304610F069FA244B3F
:10586000029408F10407CDE900353846214B039333
:10587000FFF7CCFF6FB110222946384610F058FAD6
:10588000039B1BB15B68314638469847039BC8F8B9
:1058900010303046FFF7BAFF676B10220021304608
:1058A00010F046FA07F11405134B00934FF000086F
:1058B000124B0393B542CDE9018410D02846FFF77F
:1058C000ADFF65B110224146284610F031FA039B26
:1058D0001BB15B68314628469847039B3B623046C4
:1058E000FFF79CFF204604B0BDE8F0817540020040
:1058F0007D51020094B40300674F020088B4030096
:10590000036913B11B6804301847704730B50A7B30
:105910008C88012A85B005460B4603D0022A10D098
:1059200005B030BDDA894989ADF806101B25103362
:10593000CDE902328DF8045001AA2146FFF7E0FFBD
:10594000EEE749892046FEF737FBDA895989ADF839
:1059500006101D2010338DF80400CDE902322146D7
:1059600001AA2846EAE770B504460D46FFF72AFB70
:105970002146FFF756FBFFF725FB2A466168FFF734
:10598000BFFF2CB1236820465B68BDE87040184714
:1059900070BD07B5037A8DF8013000230122ADF800
:1059A000023069460E238DF800208DF80430FFF791
:1059B000DAFF03B05DF804FB70B500F1240500F1D7
:1059C0003404002655F8040B18B1FFF7E2FF45F840
:1059D000046CA542F6D1002070BD10B50446FFF757
:1059E000EBFF04F11400FFF719FF201DFFF70EFF76
:1059F000204610BD10B50446FFF7E4FA2146FFF734
:105A000001FB08B1FFF7C5FF10BD70B58D882946B1
:105A10000446FFF7F7FA08B1FFF7BBFF236A33B17B
:105A2000294604F114001B68BDE87040184770BD9A
:105A300010B50388303B04460B2B0CD8DFE803F08D
:105A40000606060606060606060C0B12FFF7BAFA4D
:105A50002146FFF7FAFA10BDFFF7B4FA2146FFF727
:105A600055FFF8E7FFF7AEFA2146FFF7CEFFF2E762
:105A7000F7B50D4602A901E90C00044610220021E9
:105A8000DDE9007610F054F914B1C4E90076A560A0
:105A9000024BE360204603B0F0BD00BFB8B4030082
:105AA0002DE9F0439846436B87B0064617462BB95D
:105AB0004FF48B623049314806F06AFCFEF7B1FCC6
:105AC0000546002855D002AC10992046FEF734FC5C
:105AD000BA1E5742EB7B574167F3820394E80300F9
:105AE000EB73776BA8603B68A98120460E99D3F8C9
:105AF0005890FEF721FC224641463846C8470146E9
:105B00006860706B0268926890470E99074620465D
:105B1000FEF712FC02983860A388BB8018F0FD0FD6
:105B2000FB790CBF0122002262F30003FB71EB7BC7
:105B3000190656BF96F88B30C3F38013C3F3800366
:105B4000BBB1FB799B0714D5776B3B68D3F82080FA
:105B50000B4B0093002301936B460CCB3146204640
:105B6000FFF786FF38466A682146C0472046FFF7A0
:105B7000AAFD07B0BDE8F083C4B4030034B5030048
:105B8000BF4B020038B504460D466368A360A068A9
:105B900038B1C36829469847A368002BF5D01B6924
:105BA000F4E738BDC368184708B50B46042B114607
:105BB0000BD0052B11D0032B06D1836B23B10C4BDB
:105BC00013B13830FFF7EEFF08BDC36C002BFBD0DC
:105BD000074B002BF8D04C30F4E7026E00F1600365
:105BE000002AF1D0024A002AEED01846EAE700BFA8
:105BF0003D3E020038B5102204460D46002110F04B
:105C000097F81CB195E8070084E80700014BE360B2
:105C100038BD00BFACB403002DE9F041436B88B040
:105C200005460C46002B34D0FEF715FC064618B985
:105C3000042008B0BDE8F081686B716803689B6858
:105C400098470028F4D0F37B5A071DD5C3795B072A
:105C500015D56F6B3B680024D3F824800E4B01935D
:105C600001A904A8CDE90245FFF7C4FF726804A9A1
:105C70003846C04704A8FFF72EFD2046D9E7214645
:105C80002846FFF77FFBD4E721462846FEF781FE32
:105C9000CFE70920CDE700BF854A0200436B70B50E
:105CA00005460E4643B3FEF7D6FB044608B904206A
:105CB00070BD686B616803689B6898470028F6D0E0
:105CC000C279E37B510609D59A0717D443F008033C
:105CD000E37331462846FFF79FFFE9E7227C5B0725
:105CE00042F0010222743146284602D5FFF74AFBF2
:105CF000DEE7FEF74EFEDBE70920D9E70020D7E715
:105D000008B5FFF7CBFF08BDF8B5436B04460E4658
:105D1000D7B22BB940F24B521849194806F038FB5C
:105D2000FEF799FB0546F0B1606B696803689B68F4
:105D30009847C0B117F0080308D090F90730002B3E
:105D4000AABF94F88A300023C3F3C00379070BD5A8
:105D5000C279520608D42B7C43F001032B743146E0
:105D60002046FFF70FFBF8BD002BF8D1EB7B1B079C
:105D7000F9D431462046FFF74FFFF4E7C4B40300DF
:105D800034B50300F0B5436B89B004462BB94FF42A
:105D9000DB620E490E4806F0FBFAFEF75CFB064696
:105DA00090B1656B2B685F690A4B019301A90023D1
:105DB00004A8CDE90234FFF71DFF2846726804A944
:105DC000B84704A8FFF787FC09B0F0BDC4B40300CE
:105DD00034B50300594B02002DE9F0439946436B5B
:105DE0008BB0044690462BB940F2AB62134914487D
:105DF00006F0CEFAFEF72FFB0546D8B1606B696856
:105E000003689B689847A8B1666B33681F690D4BA0
:105E1000039303A9002306A8CDE90434FFF7EAFEA3
:105E2000CDF80090304643466A6806A9B84706A8F0
:105E3000FFF751FC0BB0BDE8F08300BFC4B4030012
:105E400034B50300594B02002DE9F0478EB080466F
:105E50000C46FFF7D5F98146002C00F09A800668C1
:105E6000002E00F0D981A5882946FEF7C8FF2388B7
:105E7000133B07460B2B00F2CF81DFE813F00C0039
:105E80006F009300A700AD00BC00E7009C01B101CA
:105E9000CD01CD01B901217BC1F3C003C1F34002A3
:105EA000009304A8C1F3800301F00101FEF75BFA3F
:105EB000E17AC1F3C0030093C1F34002C1F3800350
:105EC00005A801F00101FEF74EFA4FB397F80890CC
:105ED000B9F1000F24D19DF814209DF8103022F064
:105EE0000C0223F00C038DF814208DF8002041469D
:105EF0003A4606A88DF81030FEF7F1FE06AB4A468A
:105F000049462846FEF74CF830B339464046FEF77E
:105F100031FF4FF0080229463046FEF747FC1BE0F0
:105F2000247AC4F3C0030093C4F34002C4F3800393
:105F300004F0010106A8FEF734FA9DF810209DF840
:105F400014108DF804108DF800209DF81830E20927
:105F500029463046FFF7B0FA01241AE004F112078F
:105F6000208A3946FEF73DFA04F108080446A0B13C
:105F7000022208F1080105A80FF0DCFD08223946CD
:105F800006A80FF0D7FD06AB05AA29463046FFF755
:105F900023FF20460EB0BDE8F08729463046FFF7C4
:105FA000F1FED9E704F10800FEF7B6F9A37BDC07A0
:105FB00002462946304602D4FEF780FACCE7FEF7C7
:105FC0007DFA29463046FEF7A9FAC5E7227A294626
:105FD0003046FEF787FABFE7247A012C06D0022C60
:105FE000BAD129463046FFF797FAB5E72946304639
:105FF000FEF787FACDE74FF4407006F06BFE0746D8
:1060000000F090FAA36803932033049308F160032F
:106010000DF118080593CDF8008005AB04AA03A97B
:10602000384600F0E2FA2FB1384600F095FA3846CB
:1060300006F064FE41462846FDF7B6FF237BD807ED
:106040008AD529463046FFF7A7FB85E794F80880F4
:10605000B8F1010F00F09B800DD3A8F18108B8F1D1
:106060000D0F00F2A38001464846FEF783FE227A18
:1060700002F00F024FE7037A847A90F8098013B197
:106080004346A0461C4607F1200A5146F88BFEF70E
:10609000A8F9002870D018F0010F1AD007F10C01F0
:1060A00006A8FFF7ACFB06AA29463046FEF7C0FA61
:1060B000022207F11E0105A80FF03CFD08225146FF
:1060C00006A80FF037FD06AB05AA29463046FEF7B5
:1060D000D1FAE1071BD507F1900106A8FFF78FFB66
:1060E00006AA29463046FEF759FA022207F1A20114
:1060F00005A80FF01FFD082207F1A40106A80FF064
:1061000019FD06AB05AA29463046FEF771FAA2072B
:106110001DD507F1AC0106A8FFF771FB06AA2946B9
:106120003046FEF7C7FA97F8BC3013F0FE0F14BFE5
:106130004FF001084FF0000807F1BD0106A8FEF777
:10614000FBF806AB424629463046FEF70DFB6307D7
:1061500009D507F1C30106A8FFF751FB06AA294696
:106160003046FEF7C9FA39464846FEF703FE29468F
:106170003046FEF73FFBEFE607F10C0106A8FFF7FC
:106180003EFB06AA29463046FEF7D6F9BFE720B9FE
:1061900029463046FEF73FF9DEE601464846FEF75F
:1061A000E9FD29463046FEF77BF9D5E6014648462B
:1061B000FEF7E0FDD0E6237A03F00F04012C08D1AE
:1061C0001F2B06D94FF0020229463046FFF7DEF8B2
:1061D000DFE64FF0000229463046FFF7D7F8BBE66E
:1061E000237A032B18D129463046FEF713F9B3E67C
:1061F000217AC1F3C0030093C1F34002C1F38003CD
:1062000006A801F00101FEF7CCF89DF818202946F8
:106210003046FFF779FD9FE60024BAE675DF704748
:1062200090DF7047ADDF704769DF70472DE9F743B6
:106230000446FFF7FDFB002001F00EFB0368064655
:10624000DB699847336805465B6A304698470746DE
:10625000FEF7D6FF2388212B80466ED01BD81B2B40
:1062600000F098800CD8102B4FD0112B54D0214621
:106270004046FFF7E9FD2146384600F081FF22E065
:106280001D2B00F08C801F2BF1D104F10801A08898
:10629000FFF7C4FFEBE7242B5DD017D8222B53D098
:1062A000232BE4D1237AA0881B2B28BF1B23002299
:1062B00069460192ADF80030ADF80230FFF7B0FF4B
:1062C00080B20028D3D003B0BDE8F0833A2B4CD085
:1062D000552BCCD11721A088FFF7A4FF80B200284E
:1062E000F1D12B68002BC2D03368A5885B6A304699
:1062F000984700680028BAD0E2880368172A1B680C
:10630000A8BF172229469847B1E704F10802A188DF
:10631000284600F0E5FDAAE7A6884FF6FF7128465B
:1063200000F07CFC94F808903046FFF763FB4A4687
:106330003146284600F01FFD99E704F10802A188C4
:10634000284600F083FD92E704F10802A188284660
:1063500000F055FD8BE72868002888D00368228963
:106360005D6BA1886389A84781E72B68002B3FF408
:106370007EAF3368A588DB6A3046984700680028FE
:106380003FF475AF6289172AA8BF17222946FEF786
:10639000DCFD6CE7217A284600F04CFA67E704F14F
:1063A0000801284600F05FFC61E70000084B1A78FE
:1063B00010B502F0FF044AB9012220461A7001F01C
:1063C0004BFA2146BDE81040FDF7A5BD10BD00BF4A
:1063D00040460020F0B5414985B0162008F0D6FEB1
:1063E0000AF09CF984B2ECB904AD45F8104D28468A
:1063F0000AF042FA84B2ACB90C222146042701A863
:106400000FF096FC01260323009A8DF804600DEB33
:10641000070120208DF80670ADF80830FFF704FF63
:1064200018B10724204605B0F0BD0C22214601A872
:106430000FF07EFC40F20133009AADF8043001A960
:1064400040208DF80660FFF7EFFE0028E9D10C220E
:10645000214601A80FF06CFC1723009A8DF8046008
:1064600001A92320ADF80630FFF7DEFE0028D8D1C1
:106470000C22214601A80FF05BFC009A8DF80470F5
:1064800001A93046FFF7D0FE0028CAD10C222146D0
:1064900001A80FF04DFC4FF4C063009A019301A9CD
:1064A000A120FFF7C1FE0028BBD10C22214601A884
:1064B0000FF03EFC9DF80430009A43F0010301A95F
:1064C000A0208DF80430FFF7AFFE0028A9D12846A0
:1064D0000AF0DCF90028A5D0A3E700BFAD630200F5
:1064E000024608B5014806F069F900BF38B5030057
:1064F00080B260B9BFF34F8F0549064BCA6802F4FA
:10650000E0621343CB60BFF34F8F00BFFDE77047DE
:1065100000ED00E00400FA05014B00221A6070470C
:106520004446002038B504462546002005F8080BEF
:1065300005F0C2FA284604F5207505F089FA2846C8
:1065400003F096F90321284605F03CF9B0FA80F0F3
:1065500040092070204638BD10B5044600F5207073
:1065600003F0ABF904F1080005F096FA002005F0FD
:10657000A5FA204610BD30B5501E0B460A445C1AE1
:10658000A04207D91C7812F8015D03F8015B0138BD
:106590001470F4E730BD30B589B005460C46684646
:1065A000116820220FF0C6FA694628462022FFF71C
:1065B000E2FF20226946204601F0CCFC09B030BD44
:1065C00038B50C46096800290546104614BF20223C
:1065D000002201F0F7FC21680029284614BF202280
:1065E0000022BDE83840FFF7C6BFF0B593B00446BF
:1065F00003A81F4615460E4601F0FDFA06A801F055
:10660000FAFA09A803F026F93A4606A92046FFF748
:10661000C2FF324609A92046FFF7BDFF2A460CA952
:106620002046FFF7B8FF01210FA801F0FDFB002372
:10663000CDE9003309AA06AB03A904F5207002F0E6
:106640000DFC054620B903AA18A92046FFF7B8FF9C
:1066500009A803F02EF906A801F0D3FA03A801F067
:10666000D0FAB5FA85F0400913B0F0BD6DDF704780
:1066700076DF70478FDF7047022807D0042803D0E9
:10668000431E5842584170474FF00300704703685B
:106690000BB108461847704703680BB10846184706
:1066A0007047000038B5064B03600446406820B1CF
:1066B000056906F023FB2846F9E7204638BD00BFF0
:1066C00088B5030010B50446FFF7ECFF204606F03E
:1066D00015FB204610BD000038B5064B036004468C
:1066E000406820B1056906F009FB2846F9E7204615
:1066F00038BD00BF58B5030010B50446FFF7ECFFE6
:10670000204606F0FBFA204610BD000038B5064BC7
:1067100003600446406820B1056906F0EFFA284698
:10672000F9E7204638BD00BF68B5030010B5044640
:10673000FFF7ECFF204606F0E1FA204610BD00000E
:1067400038B5064B03600446406820B1056906F081
:10675000D5FA2846F9E7204638BD00BF78B50300D2
:1067600010B50446FFF7ECFF204606F0C7FA2046B6
:1067700010BD10B51F22044600210FF0D9FA0023E6
:10678000E37710BD40798011012808D0032803D099
:1067900048B901230B70704700200870704702232E
:1067A0000B70002070470420704737B5C0B20D460B
:1067B00014460023032811D8DFE800F01402141651
:1067C00002A9284601F8043DFFF7DCFF38B99DF81F
:1067D0000430012B05D007D3022B03D0002003B0D7
:1067E00030BD03232370F9E70123FBE713B590F8CD
:1067F0005630013BDBB2044680F856302BB990F896
:10680000580063F3410084F8580000918DF804208B
:10681000D4F8A430C4F8A830D4F8A80040B1C368B4
:1068200069469847D4F8A830002BF1D01B69F1E7EE
:1068300002B010BD38B504460D4629B990F858305D
:1068400061F3000380F85830636E6BB1074A5AB1A8
:10685000A366A06E40B1C36829469847A36E0BB9E2
:10686000636EF5E71B69F3E738BD00BF3D3E0200EC
:1068700038B50446D4F8B030C4F8B430D4F8B40015
:1068800040B1C36821469847D4F8B430002BF1D00A
:106890001B69F1E7D4F8B00020B1056906F02EFAC3
:1068A0002846F9E794F85830C4F8B00060F30003C4
:1068B00060F3410384F8583084F8560084F85C0093
:1068C00004F10A00FFF755FF04F13400FFF751FF10
:1068D000606E20B1056906F011FA2846F9E7606696
:1068E000D4F8980020B1056906F008FA2846F9E7BF
:1068F000C4F89800D4F8A40020B1056906F0FEF9A8
:106900002846F9E7084BC4F8A400C4E91E30074B39
:106910006067C4E91B00C4E92000C4F88800C4E92A
:106920002330206038BD00BF996602008F660200E8
:106930002DE9F041054690460622104405F10D046C
:106940001F46069E0FF0F6F8062241462046B8F193
:10695000000F11D00FF0EEF8062239467FB105F195
:1069600018000FF0E7F80622314666B105F11E0067
:10697000BDE8F0410FF0DEB80FF0DAF9ECE72046A1
:106980000FF0D6F9EFE72046BDE8F0410FF0D0B99F
:1069900037B51D4600230160027104464371821D14
:1069A00000F10C0102F8013B8A42FBD19DF81C303A
:1069B000237304F1130204F10D03002103F8011BFA
:1069C0009342FBD1099B636104F1180204F11E0399
:1069D000002102F8011B9342FBD104F124020021A3
:1069E00003F8011B9A42FBD10B9B0093089A0A9B68
:1069F000069984F824502046FFF79AFF621D0699F5
:106A00002846FFF7D2FE204603B030BD0246811D66
:106A1000002302F8013B8A42FBD18371C3710372E8
:106A20004372C3600374437470472DE9F04186B02C
:106A300004460E4601A81F4690469DF83C50FFF7BD
:106A4000E5FF3146062201A80FF074F89DF83030BA
:106A50008DF80C309DF834308DF80D3005AA0E9B62
:106A60000493314628468DF80A808DF80B708DF816
:106A70001550FFF79AFED4F88C3001A904F180007C
:106A8000984706B0BDE8F081002202607047000020
:106A900073B5044604F10A05FFF7F6FF0023A022B0
:106AA000E2802371238104F129012A4602F8013B87
:106AB0009142FBD14FF4007262854FF4804211463F
:106AC00084F82930009304F12C00002304F13406EB
:106AD000FDF729FA04F153013246002302F8013B85
:106AE0008A42FBD14FF40072A4F8542094F8582045
:106AF00084F8533002F0FE0263F3410284F8582018
:106B0000134A84F85630C4E91823124AA267124A7D
:106B1000C4F88C20114A84F85C30C4E92523104A5B
:106B20006367C4E928230F4AE367C4E91B33C4E958
:106B30002033C4F88830C4F89030C4E92B232846A9
:106B4000FFF717FE3046FFF714FE204602B070BD77
:106B500058B50300996602008F66020068B503000D
:106B600078B5030088B5030038B504460025FFF763
:106B70008FFFC4F8B85084F8BC5084F8BD5084F836
:106B8000BE5004F1BF0304F1F7021D60C3F80350C7
:106B900007339342F9D104F1F8034022002118464B
:106BA00084F8F7500FF0C4F8FDF748F8194BC4F813
:106BB000F8301022002104F590700FF0B9F801238D
:106BC000154A84F83031C4F8F82084F83E310222A6
:106BD00084F83F31002384F83A5184F83B5184F81B
:106BE0003D51A4F8465184F83C2104F5A47518469B
:106BF000E918E8500A79083302F0FE0260F3410216
:106C0000202B0A71F4D14FF6FF73A4F838312046D7
:106C100038BD00BFA4B30300B8B30300A0F8381117
:106C2000704713B51446D1B1CAB16846FFF71EFDCF
:106C300098B99DF80030C3F34603DAB21AB1012ABD
:106C400001D0062007E00B7006220DF1010120465D
:106C50000EF070FF002002B010BD0320FBE70420FF
:106C6000F9E7FFF7DEBF30B590F83A3187B0054657
:106C70000C4693B10B7803F0FE02042A0DD1042BCD
:106C80000BD1FEF7BDFA014604A8FDF75DFE059B9A
:106C90001BB195F83E31022B1AD023785908DB0737
:106CA00018D500290CBF02210321E37B8DF80C10BD
:106CB00004F110010291D9080191C3F3410100913F
:106CC00094F90E2003F00103611C2846FFF7ADFE86
:106CD00007B030BD003118BF0121E6E730B5002311
:106CE00000EBC30494F84C41A5070DD500EBC30598
:106CF000D5F848518D4207D114F0010F14BF01237C
:106D000002231370002030BD0133042BE8D1184654
:106D1000F9E770B5002303F1290500EBC5042679D6
:106D2000B6070CD4531E40F835105A425A41237905
:106D300062F30003DBB243F00203237170BD013341
:106D4000042BE8D1FAE730B5002303F1290400EB66
:106D5000C404227995070AD500EBC305D5F848513C
:106D60008D4204D113466FF34103237130BD0133CB
:106D7000042BEAD1FAE770B504460D461646FFF734
:106D8000E2FFD0F8B80010B13246FDF739FF3246C5
:106D900029462046FFF72AFD70BD90F84C316FF36D
:106DA000410380F84C3190F854316FF3410380F87F
:106DB000543190F85C316FF3410380F85C3190F806
:106DC00064316FF3410380F86431704710B50446B5
:106DD000FFF74EFD024670B94FF6FF7384F8BC0012
:106DE00084F8BD0084F8BE00A4F838312046FFF7CF
:106DF000D4FF104610BD0620FCE7FFF7E7BFF7B54C
:106E000004680E46F4B111781E291DD004D851B182
:106E10001A2907D00B2106E0232901D02A29F9D10C
:106E2000062100E00821236850781D6BFFF724FC41
:106E300007469078FFF720FC3B468DF8000032466D
:106E40002046A84703B0F0BD0421ECE713B5147841
:106E500090F84631527823408DF8043090F847314D
:106E600088B2134001A98DF80530FFF703FC02B08A
:106E700010BD38B504460D466368A360A06838B1FC
:106E8000C36829469847A368002BF5D01B69F4E72F
:106E900038BD10B5044690F8580000F0FE0040F0F0
:106EA000020084F8580094F8560090B0013084F83D
:106EB000560017980590169804901598039014980A
:106EC00002909DF84C0001901298009006A8FFF7E0
:106ED0005FFD06A904F19400FFF7CBFF10B010BDD1
:106EE0002DE9F04F8EB28DB0A0F8386108AF14468E
:106EF000D27905468846FFF70CFF06220021384666
:106F00000EF016FF0622002138460EF011FF3A4619
:106F10000DF11F012846FFF7A4FE95F83A2112B1A2
:106F200002238DF81F30237803F00109E2B1E279E2
:106F3000012A19D195F83C21012A15D103F0FE034D
:106F4000042B11D1B9F1000F0ED1FEF759F901460A
:106F50000AA8FDF7F9FC0B9B33B113213046FFF76C
:106F600087FB0DB0BDE8F08F26787608B9F1000FE9
:106F700040D0002E14BF03260226D5F8B80004F135
:106F8000010A04F1080B50B19DF81F30E279CDE9F8
:106F900000A3CDE9027B33464146FEF781FD95F81B
:106FA0003A31BBB1B9F1000F14D1E379012B11D102
:106FB000237803F0FE03042B0CD195F83C31022B0F
:106FC00008D1484600F048FC03681B6B98474146CF
:106FD000FEF796FE9DF81F10E2790023CDE90433F9
:106FE000CDE900A1CDE9027B334641462846FFF7B3
:106FF00050FFB6E7003618BF0126BEE7A4DF704792
:10700000A8DF7047A9DF704766DF7047C36A04488E
:10701000002B08BF0020003018BF0120704700BFC0
:107020003D3E0200036C0448002B08BF00200030E6
:1070300018BF0120704700BF3D3E020038B505462D
:107040000C46FFF7EFFF38B10023238205F1400023
:10705000EB6C21469847208A38BD427900F17403D1
:1070600003EB82020020934206D053F8041B098BE5
:10707000884238BF0846F6E77047F8B5D0F8A04117
:1070800005460F4694B900F5CC762846FFF7E5FF94
:107090000EF000FA0C2303FB04540022C4F8A001F4
:1070A000C4F89C21A4F898713046F8BDD0F8AC31F2
:1070B0001BB900F5D2760124E7E7D0F8B8311BB947
:1070C00000F5D8760224E0E70026EDE710B5024689
:1070D0000023D2F8A0411CB1B2F898418C4206D0EE
:1070E0000133032B02F10C02F3D1002004E00C2247
:1070F00002FB030000F5CC7010BD10B5FFF7E6FFF2
:10710000044628B180680EF0CDF90023A360012069
:1071100010BD70B5044600F124050026D4F8A00186
:1071200018B10EF0BFF9C4F8A0610C34AC42F5D12F
:1071300070BD38B50546FEF77FFA0446F0B9014642
:10714000502205F174000EF0F3FD2022214605F5D2
:10715000B2700EF0EDFD0822214605F1C4000EF0DC
:10716000E7FD1022214605F5C3700EF0E1FD28462B
:1071700085F88441FFF7CDFF204638BD0620FCE7A7
:107180002DE9F0430B88512B8FB005460C467FD07C
:1071900007D8012B00F08780502B15D00FB0BDE829
:1071A000F083532B3FD06CD3572BF7D18C79EB68FE
:1071B0002B6128690028F1D0C368214698472B69C4
:1071C000002BF4D01B69F3E7CF88427900239A4261
:1071D0000DD905EBC301B1F8C810B94209D105EBCF
:1071E0008303586F90F8202012F0300F03D1022152
:1071F0001BE00133EBE7E17CA37C960643EA012325
:1072000001D59C070BD4D2060BD513F0010F0CBF90
:1072100004210321828B2846FEF7C6FCBEE703212A
:10722000F8E70421F6E7CF88052195F805800026C8
:10723000B04540F2668105EBC603B3F8C430BB42EB
:107240003AD10629B14600F02181072900F0638177
:10725000022940F05481A3880993237B8DF82A30BA
:10726000E389ADF82C30123434F8023CADF82870C4
:10727000ADF82E300C9409A905F11400FEF782FC3C
:107280008CE700231A461946A088FFF7BBFE85E766
:107290008B79012B04D0022B80D10F890721C4E701
:1072A0000F890621C1E78C882146FFF7E6FE002101
:1072B0002046FFF7A9FE71E70136B9E731462846B7
:1072C000FFF704FF074608B9A24922E0C38823BBA1
:1072D00022894280228A8280B868628A04F1140579
:1072E000294618440EF026FCFB88628A1344FB8072
:1072F0000023CDE9093302238DF8243001238DF8D2
:107300002A30238AADF82C30638AADF82E300C95E4
:1073100009A93046FFF774FE40E782881A44904579
:1073200040F00E81218942889142D5D0894908E1F7
:1073300031462846FFF7E1FE8749EAE7314628460D
:10734000FFF7C4FE07460028BED081884288ADF80A
:107350002A10C188ADF82C1000238168CDF82E309A
:10736000CDF83230ADF836300996ADF828200C91C2
:10737000984507D905EBC301B1F8C410914203D079
:107380000133F5E74FF0FF3305EB830309A9586F8D
:10739000FFF754FE0028C9D1FB88ADF80430BB8844
:1073A000ADF8063001AABB68798802933046FFF732
:1073B00025FE0028BAD168493046FFF721FE7B88B8
:1073C000ADF81830A37B8DF81A30BB88ADF81C30AF
:1073D000FB88ADF81E3005A9BB68059605F11400C1
:1073E0000893FEF7CFFBAFE04FF00008238A099621
:1073F000ADF82A301022638ACDF82E80414604F180
:10740000140601A805EB8909CDF83280ADF82C30BF
:10741000ADF83680ADF828700C960EF089FC02238A
:107420008DF8043009A90123D9F874008DF80A30C9
:10743000FFF704FEBDF82A30ADF80C30BDF82C3053
:10744000ADF80E300C9BADF80800049328B19DF800
:107450000A3068F300038DF80A3001A9A088FFF70D
:10746000CFFDBDF80830002B7FF498AEA3880593BC
:10747000A37B8DF81A30238AADF81C30638AADF8EF
:107480001870ADF81E30089605A9F5E6A388099393
:1074900005EB86050021E389ADF82A30102205A806
:1074A000CDE90B110D91ADF828700EF041FC6D6F18
:1074B000012328468DF81430FFF7A8FD30B105F1FF
:1074C0002C00AB6B09A99847BDF83400BDF83430E7
:1074D000ADF8180083B90C9A72B19DF81A30089271
:1074E00043F001038DF81A30BDF82A30ADF81C3096
:1074F000BDF82C30ADF81E3005A9A0880AE73A4641
:1075000089E607297FF44AAEA37B053B012B3FF6B2
:1075100045AE4FF0FF392846FFF79FFDA37BA688B5
:10752000052B3FF405AF062B3FF408AF042B7FF487
:107530005BAFB4F81080638A434483427FF7BEAEEA
:1075400006493046FFF75CFD31462846FFF7D5FD7A
:1075500024E600BFA0B5030090B50300B0B503005A
:1075600065DF70473EDF7047007970471030704725
:1075700000F5BE7070471030704703685B6B1847AA
:1075800008B503689B689847BDE80840FFF7EABF65
:107590001FB5037923B3144C2278E2B902A8FFF790
:1075A000DFFF98B9BDF80A30592B0FD19DF808308C
:1075B000BDF80C20D91F01290FD800920B4A0C48A6
:1075C00020210EF033FF0123237004E0202209491B
:1075D00007480FF0A3F9064803E00092064AEEE7D9
:1075E000064804B010BD00BF48480020E2B50300C3
:1075F00028480020DAB50300FFB50300C0B503003A
:1076000038B503790546F3B109F0C0F8E8B9D5F803
:10761000780188B92B682846DB6A9847FDF75AFD40
:10762000044670B905F11000FFF7E7FB044640B9C6
:10763000FEF772FF2C7104E0FDF7B4FD044600284C
:10764000E8D0204638BD0924FBE70524F9E700000F
:1076500008B504F061FF074B1A783AB100221A709E
:1076600004F070FFBDE8084009F0CAB8BDE8084062
:1076700004F068BF40460020F7B5037907460E4680
:10768000154683B100230A24CDE900338DF8044068
:107690003046FCF715FCEB68009069462846984791
:1076A000204603B0F0BDB960FEF794FE044620B951
:1076B00001233B71CDE90000EAE70C20F1E700006F
:1076C000174B10B50446036000F5D270FCF7DCFDE3
:1076D00004F5CC70FCF7F2FD04F5C670FCF750FD24
:1076E00004F5C070FCF76CFD0E4BC4F8083104F5CE
:1076F0008470FBF779FE04F1BC00FEF7D3FF04F1C0
:10770000B000FFF71DF804F1A400FEF7FFFF04F13D
:107710007000FEF7E1FF2046FCF7FCFB204610BDA1
:107720002CB60300B8B3030010B50446FFF7C8FF3A
:10773000204605F0E3FA204610BD10B50446FDF7DB
:1077400045FF04F1740304F1C402002143F8041B53
:107750009342FBD104F5B2720021196059600833DD
:107760009A42FAD1134604F5C271002243F8042B61
:107770009942FBD184F8842104F5C37304F5CB72DC
:10778000002123F8021B9342FBD104F5CC7304F5CE
:10779000DE7100229A60C3E900220C338B42F9D1DA
:1077A000204610BD38B5D0F87831044643B94FF4BF
:1077B000DE7005F08FFA0546FFF7BFFFC4F8785179
:1077C000D4F8780138BD38B5D0F87831044643B9DB
:1077D0004FF4DE7005F07EFA0546FFF7AEFFC4F801
:1077E0007851D4F8780138BD38B50446094B0360A8
:1077F0000025057185601030FFF7B6F9C4F878519F
:10780000FDF7E0FB014604F5BE70FEF70FF82046D9
:1078100038BD00BF2CB6030010B50B4C2378BFF366
:107820005B8FDB070ED4204605F0BCF850B107484B
:10783000FFF7DAFF204605F0D9F8054A0549034865
:1078400005F09DF8014810BD484600205046002034
:10785000B0320020C1760200FFF7DEBFFFF7DCBFC9
:10786000F8B5394F0446FDF7CBFC3D78BFF35B8F8D
:1078700015F00105064664D1384605F093F8002856
:107880005FD0236820461B6A304C9847304BA66275
:10789000C4E900352F4BC4E9043504F11003E3605B
:1078A000B8302D4BE062C4E90655C4E9085504F12F
:1078B0003800C4E90C35FCF764FB04F13E00FCF72A
:1078C00060FB04F14400FDF76FFC04F15400FDF788
:1078D0006BFC04F16400FDF767FC04F17400FCF735
:1078E00050FB04F17A00FDF75FFC0F2384F88B3026
:1078F000012684F88A5004F1900084F88C5084F8B2
:107900008D6084F88E50FCF7C5FF04F1A400FCF7ED
:10791000C1FF04F1B800FCF7BDFF04F1CC00FCF797
:10792000B9FF04F1E000FCF7B5FFA36A38461C601C
:1079300084F8646005F05AF8084A0949204605F0C1
:107940001EF80248F8BD00BF4C4600204C480020FD
:10795000E0B30300F0B3030040490020B032002040
:10796000FD430200F7B50F4C20460D4616461F4654
:10797000FBF774FD05F0BCFB01A808F005FD2946E6
:107980003B46324601A808F031FD054601A808F043
:1079900015FD2046FBF762FD05F0C8FB284603B045
:1079A000F0BD00BF48490020A2F1300310B5DCB2A1
:1079B000092C88BFFF230360A2F14103052B9CBF64
:1079C000A2F137030360A2F16103052B9CBF573A74
:1079D000026003688B422CBF6FF00500002010BDD1
:1079E0000023F0B5161F1C46844203D102EB84022B
:1079F000B3B9F0BD56F804CFACEB0305356051F8D0
:107A00002470BD422CBF4FF0000E4FF0010EED1B55
:107A10009C452CBF73460EF1010335600134E3E74A
:107A20001168C81A994242F8040B2CBF00230123A5
:107A3000DEE7F0B507460E46054600240F2D4DD86B
:107A40003D096FF00F0101FB0575072D38D956F878
:107A5000040B1168E3FB601442F8041B56F8040B96
:107A60001168E3FB601442F8041B56F8040B11681C
:107A7000E3FB601442F8041B56F8040B1168E3FBA7
:107A8000601442F8041B56F8040B1168E3FB601401
:107A900042F8041B56F8040B1168E3FB601442F82B
:107AA000041B56F8040B1168E3FB601442F8041B36
:107AB00056F8040B1168E3FB601442F8041B083D00
:107AC000002D7DD113681C194FF0000128BF012142
:107AD00042F8044B01240029F4D1F0BD56F8040B00
:107AE0001168E3FB601442F8041B56F8040B11689C
:107AF000E3FB601442F8041B56F8040B1168E3FB27
:107B0000601442F8041B56F8040B1168E3FB601480
:107B100042F8041B56F8040B1168E3FB601442F8AA
:107B2000041B56F8040B1168E3FB601442F8041BB5
:107B300056F8040B1168E3FB601442F8041B56F876
:107B4000040B1168E3FB601442F8041B56F8040BA5
:107B50001168E3FB601442F8041B56F8040B11682B
:107B6000E3FB601442F8041B56F8040B1168E3FBB6
:107B7000601442F8041B56F8040B1168E3FB601410
:107B800042F8041B56F8040B1168E3FB601442F83A
:107B9000041B56F8040B1168E3FB601442F8041B45
:107BA00056F8040B1168E3FB601442F8041B56F806
:107BB000040B1168E3FB601442F8041B103D3DE721
:107BC00056F8040B1168E3FB601442F8041B013DF6
:107BD00076E701F18041013900EB810188420346DB
:107BE00000D970471B680A681BBA12BA40F8042B08
:107BF00041F80439F2E700230122C0E90023836041
:107C0000704710B5044668B1806830B1616889007A
:107C100003F056FFA0680DF045FC00230122C4E9E3
:107C20000023A36010BD42F21073994270B5044660
:107C30000D4602D96FF00F0070BD43688B4216D21B
:107C4000042128460CF0E0FB06460028F2D0A1688B
:107C500059B1626892000DF06DFF6168A0688900FB
:107C600003F02EFFA0680DF01DFCC4E901560020B2
:107C7000E2E742F21073994270B504460D4602D90C
:107C80006FF00F0070BD43688B4203D8BDE87040B1
:107C9000FFF7C9BF5A1E9B00DAB90132954238BFBF
:107CA0001546042128460CF0AFFB06460028E7D015
:107CB000A16851B1AA000DF03DFF6168A06889007C
:107CC00003F0FEFEA0680DF0EDFBC4E901560020B4
:107CD000D8E7A1681944043B51F8041C0029DCD101
:107CE000013AD9E78842F8B506460F4603D08D68B9
:107CF0001DB9FFF786FF002011E04C68013C1CB164
:107D000055F82430002BF9D072683B683360013499
:107D1000A24205D221463046FFF785FF40B1F8BDAB
:107D2000B068121B9200002100EB84000EF000F8F6
:107D3000A200B968B0680DF0FDFEDCE7F8B50E46AC
:107D4000496805461446FFF76EFFB0B96242224308
:107D500031682B68D6F804E0C2F3C012C2F1010406
:107D6000514303FB04132B6003469E454FEA8301F6
:107D700004D16F680A469F420ED8F8BDD5F808C0F6
:107D8000B1685CF8237051F82310674301FB02715E
:107D90004CF823100133E8E7AE68B1586143B150A5
:107DA00001330432E7E788422DE9F04105460C46ED
:107DB000164602D10020BDE8F0814968FFF733FF85
:107DC0000028F8D169682046FFF72DFF0028F2D17E
:107DD0007242324329682668D5F804C0C2F3C01243
:107DE000C2F1010301FB03F706FB02762E60266851
:107DF000514306FB031121608445DBD0D5F808E030
:107E0000A7685EF8201057F8206001FB03F806FB16
:107E100002864EF8206057F82060514306FB03119C
:107E200047F820100130E7E770B50E4601210446FF
:107E3000FFF7F9FE054688B9626801469200A0681E
:107E40000DF076FFA36886EAE672002EA2EBE672DA
:107E50001A60B4BF4FF0FF3301232360284670BD82
:107E60004368B1EB431F3FBF83684A0901F01F011C
:107E700053F822003ABFC84000F0010000207047CC
:107E8000012AF8B507460C4615464FEA51161BD88D
:107E90004368B1EB431F10D2B96804F01F040123FB
:107EA00003FA04F251F8263005FA04F423EA020337
:107EB0001C4341F826400020F8BD42B1711CFFF779
:107EC000B2FE0028E8D0F7E76FF00300F4E71046B1
:107ED000F2E7F0B50021456804460A46954201D113
:107EE0000020F0BDA36853F82260002326FA03F7B0
:107EF000FF0701EB0300F4D40133202B01EB030057
:107F0000F4D101320146E9E74368DBB181685A1ECA
:107F10009B007AB951F8221000204FF0004319421B
:107F200004D1013020284FEA5303F8D1C0EB4210AE
:107F300020307047C818043B50F8040C0028E9D1E1
:107F4000013AE6E71846704708B5FFF7DDFF07304E
:107F5000C00808BD2DE9F04112F0030418BF012448
:107F6000436804EB9204A34207468846154608D1AD
:107F700000213846FFF758FF064688B13046BDE875
:107F8000F081FFF73EFE00230122C7E90023BB601A
:107F900021463846FFF747FE06460028E8D0EDE7C1
:107FA000B8F1000FEAD0BB68C5EB84002A46414611
:107FB00018440DF0BFFD002CE0D02146B868FFF753
:107FC00008FEDBE7F8B5054608466C68A400944255
:107FD0001CD2121B8E1800210DF0AAFE304622463C
:107FE000104400239A4213D10020F8BD23F0030C63
:107FF000AF6803F00301CE0057F80C10F14011F008
:10800000FF0F11D10133A342F0D1E9E71346FAE79C
:1080100023F00306AF6803F00301CC00B959E14037
:1080200000F8011D0133DDE76FF00700DDE7F8B56B
:1080300006460D464C0901F01F07FFF765FF736800
:108040002844B0EB431F03D874B92FBB00200AE0CB
:1080500010F01F0118BF012101EB50113046FFF74E
:10806000E2FD0028F0D0F8BD736803F18042013AC8
:10807000121B9200A000A34207D89B000022043BE1
:10808000191DE2D0B168CA50F9E7B1688D581144A2
:10809000013B0D50043AEEE7D6F804C0A3000021DE
:1080A000C7F1200EA445D1D9B568E85800FA07F207
:1080B0000A43EA500134043320FA0EF1F2E7436830
:1080C000F0B44D09AB4203D301F01F0104D169B3F1
:1080D0000021F0BCFFF7A8BEE5B929B19A00002540
:1080E000C1F1200C043ABBB90020F0BC7047846891
:1080F000561954F8266044F8226001325C1B944201
:10810000F5D8A2000025A342E7D986680134B5500E
:108110000432F8E70022F1E78768BE5826FA01F436
:108120002C43BC50013B06FA0CF5DBE7002BDBD0FF
:108130000A46E3E770B543689A0033B94A68940089
:1081400062B9181C18BF012016E084681444043A70
:1081500054F8044C002CF1D1013BEEE78D682E1948
:10816000043C56F8046C0EB9013AE9E793420DD885
:108170000ED39A000BB9184670BD043A81688C582A
:10818000A9588C4202D803D3013BF3E70120F3E75F
:108190004FF0FF30F0E770B543689A0023B94A68A2
:1081A000940052B99BB924E084681444043A54F80A
:1081B000044C002CF3D1013BF0E78D682E19043CF0
:1081C00056F8046C0EB9013AEBE7934202D9026803
:1081D000104670BD096801D24A42F9E70268002AD8
:1081E00001DD002912DB002901DD002A10DB9900E6
:1081F0000BB91A46ECE70439846866586C58A642F5
:10820000E6D801D25242E3E7013BF1E70122DFE782
:108210004FF0FF32DCE71FB581EAE173A3EBE173B6
:1082200000290093B4BF4FF0FF330123019301A94C
:1082300001230293CDF80CD0FFF7ADFF05B05DF838
:1082400004FB90422DE9F04106460C46154602D04B
:10825000884233D12C46D4F80480012333604FEA9E
:108260008803B8F1000F31D141463046FFF7DBFCFF
:10827000074640BBB368D4F808E0194604460546F3
:10828000A8452DD103EB8503ECB17268AA4205F134
:10829000010808D841463046FFF7C5FC002831D117
:1082A000B36803EB85031A6814194FF0000128BF67
:1082B000012143F8044B45460C46E5E7FFF712FD64
:1082C00007460028C6D03846BDE8F081A2681A44A7
:1082D000043B52F8042C002AC6D108F1FF38C0E74D
:1082E0000A685EF8250014194FF0000C28BF4FF003
:1082F000010C241841F8044B2CBF012400246444D1
:108300000135BDE70746DEE7F0B50F4685B0064606
:10831000114638461546FFF70DFF00282FDB0023D6
:108320000122B542CDE90123039306D1294601A8D4
:10833000FFF7D8FC0446A0B901ADB7420AD168687E
:10834000A96801233360830088B9B268FFF748FB4E
:10835000002406E039463046FFF7C4FC04460028F6
:10836000EDD001A8FFF74DFC204605B0F0BDCA18BE
:10837000043B52F8042C002AE7D10138E4E76FF0FF
:108380000904F1E7F8B50C681368634305460F4626
:10839000164616D511463846FFF7CCFE002806DBF8
:1083A000324639462846FFF7AFFF40B1F8BD3A469E
:1083B00031462846FFF7A8FF0028F7D164422C6019
:1083C000F4E7FFF73EFFF0E7F8B50C681368634386
:1083D000002B05460F46164616DD11463846FFF7B8
:1083E000A9FE002806DB324639462846FFF78CFFF7
:1083F00040B1F8BD3A4631462846FFF785FF0028D0
:10840000F7D164422C60F4E7FFF71BFFF0E71FB5DC
:1084100082EAE273A3EBE273002A0093B4BF4FF049
:10842000FF330123019301AA01230293CDF80CD05D
:10843000FFF7A8FF05B05DF804FB1FB582EAE27301
:10844000A3EBE273002A0093B4BF4FF0FF33012384
:10845000019301AA01230293CDF80CD0FFF7B4FFDA
:1084600005B05DF804FB2DE9F047002386B0154602
:1084700088424FF0010280460E46CDE90023CDE947
:108480000232CDE9043305D16846FFF72BFC0446E0
:1084900050BB6E46A84506D1414603A8FFF722FC13
:1084A000044608BB03ADD6F804904FEA8903B9F13E
:1084B000000F23D16F68BB0057BB09EB0701404693
:1084C000FFF7B1FB044678B901464046FFF7ACFC24
:1084D000044648B94FEA870AAAF1040A0FBB32687A
:1084E0002B685343C8F8003003A8FFF78AFB68469F
:1084F000FFF787FB204606B0BDE8F087B2681A4454
:10850000043B52F8042C002AD4D109F1FF39CEE7FC
:10851000AA681A44043B52F8042C002ACDD1013F2A
:10852000CAE7AB68D8F8082053F80A30B16852445B
:108530004846FFF77EFA013FCEE71FB501230092C0
:1085400001AACDE90133CDF80CD0FFF78CFF05B0BF
:108550005DF804FB2DE9FF478B1E0E2B054689466F
:10856000904605D96FF00304204604B0BDE8F087BB
:10857000012300241046CDE9013403940EF060F984
:10858000B9F1100F06463ED1B0F1804FEAD2830018
:1085900013F01C0F0CBF2146012101EB531128469B
:1085A000FFF741FB044690B901462846FFF73CFC23
:1085B000044660B907460EB9002408E0012E0AD12E
:1085C00098F800302D2B06D14FF0FF332B6001A817
:1085D000FFF717FBC8E7013E102118F80620684690
:1085E000FFF7E2F9002843D1F808009BA968BA0018
:1085F00002F01C0203FA02F251F82030134341F852
:1086000020300137D7E721462846FFF70DFC044606
:108610000028DCD107464FF0FF3AB742CCD03FB933
:1086200098F800302D2B03D1C5F800A00137F4E7EE
:1086300018F8072049466846FFF7B6F904460028AF
:10864000C5D14A46294601A8FFF777FF044600280E
:10865000BDD12B68009A012B01A9284605D1FFF74F
:10866000D6FE04460028E1D0B1E7FFF7E6FEF8E7C2
:108670000446ACE72DE9F04F99B00F460190002178
:10868000184690460393FFF7C6FD002800F0A4812A
:1086900000240125039917944046CDE90954CDE9FA
:1086A0000B45CDE90D44CDE90F54CDE91145CDE998
:1086B0001344CDE91554FFF73DFDA04226DA019B96
:1086C0002BB9DFB90024204619B0BDE8F08F214650
:1086D0000198FFF7A9FB04460028F2D009A8FFF78C
:1086E00090FA0CA8FFF78DFA0FA8FFF78AFA12A8E4
:1086F000FFF787FA15A8FFF784FAE4E74146384602
:10870000FFF7F0FA04460028E8D1DBE7414609A864
:10871000FFF7E8FA04460028E0D10CAE0399304692
:10872000FFF7E0FA04460028D8D1D8F804100C95D9
:1087300002310FA80995FFF776FA04460028CDD13B
:1087400001460FA8FFF770FB04460028C6D102219E
:1087500012A8FFF768FA04460028BFD1032115A824
:10876000FFF761FA04460028B8D13046FFF7CCFB8A
:1087700000F01F001F2874D0C0F11F03194609A87C
:108780000293FFF754FC04460028A7D10299304613
:10879000FFF74DFC04460028A0D10A9DDDF834A067
:1087A00005F1FF390AF1FF33A9EB030B00934FEA00
:1087B0004B13194630460493FFF739FC0446002852
:1087C0008CD14FEA8B0B314609A8FFF7E4FC002857
:1087D00049DA04993046FFF772FC044600287FF41A
:1087E0007DAF009B4FEA830BABF1040307936FF05F
:1087F000030303FB0AF305F18045013D0693CAEB31
:10880000CA63AD000593009B99453BD8019B5BB1C2
:108810000FA91846FFF766FA08BB039BD8F800209B
:108820001B685343019A1360002F3FF457AF02991E
:1088300009A8FFF744FC90B9D8F80030099309A9BA
:108840003846FFF74FFA0146002840F0C38038460B
:10885000FFF7E1FC00287FF441AF01233B600446B1
:108860003CE7029499E7119951F80B20013241F845
:108870000B2009A932460846FFF7A6FD044600284A
:10888000A1D02BE70B990E9A06984B5952F80B2062
:10889000DDF844A046199342A5F1040004907ED36C
:1088A0004FF0FF334AF806305AF8063001334AF8E1
:1088B0000630A5F1080A119A9359013B9351002102
:1088C00012A8FFF7B1FA0028C9D1009B0E9A002B1D
:1088D0007ED0079BD158149B196052F80B205A6028
:1088E000119B12A908469A59FFF727FE0146002856
:1088F00070D115A8FFF798FA0028B0D10B9A179BF2
:108900000499B9F1010F18BF52F80A0018605158C4
:10891000596052599A6015A912A8FFF73CFC00282B
:10892000C9DC119B0CA99A5912A8FFF706FE002872
:1089300095D1059B03EB090A4FEA4A1A514612A842
:10894000FFF775FB00288AD109A9084612AAFFF78C
:108950003BFD014600283DD109A8FFF75CFC00283B
:1089600019DA0CA912A8FFF7BDF900287FF477AF38
:10897000514612A8FFF75BFB00287FF470AF09A9EE
:1089800012AA0846FFF7FEFC00287FF468AF119A90
:108990009359013B935109F1FF39043D33E70498A2
:1089A00051F800C08AB119460023184640EA0C006D
:1089B0000BF0A6FB00234FF0FF328B4208BF824230
:1089C00000D210464AF806006EE74FF0FF30F9E794
:1089D000009980E70C4681E66FF00B0473E670B5F2
:1089E00004460D46104600211646FFF714FC0028E9
:1089F00024DB2A46334621460020FFF73BFE05468E
:108A000038B1284670BD324621462046FFF7BAFCF1
:108A100090B900212046FFF7FEFB0028F3DB31462A
:108A20002046FFF7B8FB0028EBDB32462146204604
:108A3000FFF7CAFC0028F2D00546E2E76FF009050F
:108A4000DFE7F0B58BB000230126074604A81546E2
:108A5000CDE90163CDE90336CDE90533CDE90763FF
:108A60000993FFF73FF90446002857D1294607A884
:108A7000FFF738F90446002850D104A8FFF729FA77
:108A8000054607A8FFF725FA854228BF054629466F
:108A900004A8FFF714FB044600283FD1294607A885
:108AA000FFF70DFB0446002838D1079604960021F5
:108AB00004A8FFF7B0FB58B9294607A8FFF7B7FA93
:108AC000044658BB07A93846FFF70CF9044625E0D1
:108AD00004A8FFF7FEF9014604A8FFF7F0FA0446E0
